{
  "contractName": "BaseContainer",
  "abi": [
    {
      "inputs": [
        {
          "internalType": "string",
          "name": "name",
          "type": "string"
        },
        {
          "internalType": "address",
          "name": "contractAddress",
          "type": "address"
        }
      ],
      "name": "addContract",
      "outputs": [],
      "stateMutability": "nonpayable",
      "type": "function"
    },
    {
      "inputs": [
        {
          "internalType": "string",
          "name": "name",
          "type": "string"
        }
      ],
      "name": "getContract",
      "outputs": [
        {
          "internalType": "address",
          "name": "",
          "type": "address"
        }
      ],
      "stateMutability": "view",
      "type": "function"
    },
    {
      "inputs": [],
      "name": "owner",
      "outputs": [
        {
          "internalType": "address payable",
          "name": "",
          "type": "address"
        }
      ],
      "stateMutability": "view",
      "type": "function"
    },
    {
      "inputs": [
        {
          "internalType": "address payable",
          "name": "newOwner",
          "type": "address"
        }
      ],
      "name": "transferOwnership",
      "outputs": [],
      "stateMutability": "nonpayable",
      "type": "function"
    },
    {
      "inputs": [],
      "name": "getAddressOfLoanManager",
      "outputs": [
        {
          "internalType": "address",
          "name": "",
          "type": "address"
        }
      ],
      "stateMutability": "view",
      "type": "function"
    },
    {
      "inputs": [],
      "name": "getAddressOfWallet",
      "outputs": [
        {
          "internalType": "address",
          "name": "",
          "type": "address"
        }
      ],
      "stateMutability": "view",
      "type": "function"
    },
    {
      "inputs": [],
      "name": "getAddressOfLoanDB",
      "outputs": [
        {
          "internalType": "address",
          "name": "",
          "type": "address"
        }
      ],
      "stateMutability": "view",
      "type": "function"
    },
    {
      "inputs": [],
      "name": "getAddressOfHeartToken",
      "outputs": [
        {
          "internalType": "address",
          "name": "",
          "type": "address"
        }
      ],
      "stateMutability": "view",
      "type": "function"
    }
  ],
  "bytecode": "0x6080604052336000806101000a81548173ffffffffffffffffffffffffffffffffffffffff021916908373ffffffffffffffffffffffffffffffffffffffff160217905550610b7b806100536000396000f3fe608060405234801561001057600080fd5b50600436106100885760003560e01c8063bf5b60161161005b578063bf5b601614610266578063ea0bdcff14610341578063f2fde38b1461038b578063f763c847146103cf57610088565b80631dd4b9d91461008d57806335817773146100d75780638da5cb5b146101d2578063bcb3f2581461021c575b600080fd5b610095610419565b604051808273ffffffffffffffffffffffffffffffffffffffff1673ffffffffffffffffffffffffffffffffffffffff16815260200191505060405180910390f35b610190600480360360208110156100ed57600080fd5b810190808035906020019064010000000081111561010a57600080fd5b82018360208201111561011c57600080fd5b8035906020019184600183028401116401000000008311171561013e57600080fd5b91908080601f016020809104026020016040519081016040528093929190818152602001838380828437600081840152601f19601f82011690508083019250505050505050919291929050505061045e565b604051808273ffffffffffffffffffffffffffffffffffffffff1673ffffffffffffffffffffffffffffffffffffffff16815260200191505060405180910390f35b6101da61061c565b604051808273ffffffffffffffffffffffffffffffffffffffff1673ffffffffffffffffffffffffffffffffffffffff16815260200191505060405180910390f35b610224610641565b604051808273ffffffffffffffffffffffffffffffffffffffff1673ffffffffffffffffffffffffffffffffffffffff16815260200191505060405180910390f35b61033f6004803603604081101561027c57600080fd5b810190808035906020019064010000000081111561029957600080fd5b8201836020820111156102ab57600080fd5b803590602001918460018302840111640100000000831117156102cd57600080fd5b91908080601f016020809104026020016040519081016040528093929190818152602001838380828437600081840152601f19601f820116905080830192505050505050509192919290803573ffffffffffffffffffffffffffffffffffffffff169060200190929190505050610686565b005b610349610902565b604051808273ffffffffffffffffffffffffffffffffffffffff1673ffffffffffffffffffffffffffffffffffffffff16815260200191505060405180910390f35b6103cd600480360360208110156103a157600080fd5b81019080803573ffffffffffffffffffffffffffffffffffffffff169060200190929190505050610947565b005b6103d7610ad2565b604051808273ffffffffffffffffffffffffffffffffffffffff1673ffffffffffffffffffffffffffffffffffffffff16815260200191505060405180910390f35b60006104596040518060400160405280600681526020017f4c6f616e4442000000000000000000000000000000000000000000000000000081525061045e565b905090565b60008073ffffffffffffffffffffffffffffffffffffffff166001836040518082805190602001908083835b602083106104ad578051825260208201915060208101905060208303925061048a565b6001836020036101000a038019825116818451168082178552505050505050905001915050908152602001604051809103902060009054906101000a900473ffffffffffffffffffffffffffffffffffffffff1673ffffffffffffffffffffffffffffffffffffffff16141561058b576040517f08c379a00000000000000000000000000000000000000000000000000000000081526004018080602001828103825260178152602001807f436f6e7472616374206861736e2774207365742079657400000000000000000081525060200191505060405180910390fd5b6001826040518082805190602001908083835b602083106105c1578051825260208201915060208101905060208303925061059e565b6001836020036101000a038019825116818451168082178552505050505050905001915050908152602001604051809103902060009054906101000a900473ffffffffffffffffffffffffffffffffffffffff169050919050565b6000809054906101000a900473ffffffffffffffffffffffffffffffffffffffff1681565b60006106816040518060400160405280600681526020017f57616c6c6574000000000000000000000000000000000000000000000000000081525061045e565b905090565b6000809054906101000a900473ffffffffffffffffffffffffffffffffffffffff1673ffffffffffffffffffffffffffffffffffffffff163373ffffffffffffffffffffffffffffffffffffffff161461072b576040517f08c379a000000000000000000000000000000000000000000000000000000000815260040180806020018281038252602e815260200180610b18602e913960400191505060405180910390fd5b600073ffffffffffffffffffffffffffffffffffffffff166001836040518082805190602001908083835b602083106107795780518252602082019150602081019050602083039250610756565b6001836020036101000a038019825116818451168082178552505050505050905001915050908152602001604051809103902060009054906101000a900473ffffffffffffffffffffffffffffffffffffffff1673ffffffffffffffffffffffffffffffffffffffff1614610856576040517f08c379a00000000000000000000000000000000000000000000000000000000081526004018080602001828103825260178152602001807f436f6e747261637420616c72656164792065786973747300000000000000000081525060200191505060405180910390fd5b806001836040518082805190602001908083835b6020831061088d578051825260208201915060208101905060208303925061086a565b6001836020036101000a038019825116818451168082178552505050505050905001915050908152602001604051809103902060006101000a81548173ffffffffffffffffffffffffffffffffffffffff021916908373ffffffffffffffffffffffffffffffffffffffff1602179055505050565b60006109426040518060400160405280600a81526020017f4865617274546f6b656e0000000000000000000000000000000000000000000081525061045e565b905090565b6000809054906101000a900473ffffffffffffffffffffffffffffffffffffffff1673ffffffffffffffffffffffffffffffffffffffff163373ffffffffffffffffffffffffffffffffffffffff16146109ec576040517f08c379a000000000000000000000000000000000000000000000000000000000815260040180806020018281038252602e815260200180610b18602e913960400191505060405180910390fd5b600073ffffffffffffffffffffffffffffffffffffffff168173ffffffffffffffffffffffffffffffffffffffff161415610a8f576040517f08c379a00000000000000000000000000000000000000000000000000000000081526004018080602001828103825260208152602001807f4e6577206f776e657220616464726573732063616e6e6f74206265207a65726f81525060200191505060405180910390fd5b806000806101000a81548173ffffffffffffffffffffffffffffffffffffffff021916908373ffffffffffffffffffffffffffffffffffffffff16021790555050565b6000610b126040518060400160405280600b81526020017f4c6f616e4d616e6167657200000000000000000000000000000000000000000081525061045e565b90509056fe4f6e6c792074686520636f6e7472616374206f776e65722063616e2063616c6c20746869732066756e6374696f6ea2646970667358221220d43618741b69bff7053037633cf00607518f6bf9e8a222911fe858d25fdf31f164736f6c63430006000033",
  "source": "// SPDX-License-Identifier: MIT\npragma solidity ^0.6.0;\n\nimport \"./ContractManager.sol\";\nimport \"./ContractNames.sol\";\n\n\n/**\n    @title BaseContainer\n    @dev Contains all getters of contract addresses in the system\n    @author abhaydeshpande\n */\ncontract BaseContainer is ContractManager, ContractNames {\n    function getAddressOfLoanManager() public view returns (address) {\n        return getContract(CONTRACT_LOAN_MANAGER);\n    }\n\n    function getAddressOfWallet() public view returns (address) {\n        return getContract(CONTRACT_WALLET);\n    }\n\n    function getAddressOfLoanDB() public view returns (address) {\n        return getContract(CONTRACT_LOAN_DB);\n    }\n\n    function getAddressOfHeartToken() public view returns (address) {\n        return getContract(CONTRACT_HEART_TOKEN);\n    }\n}\n",
  "sourcePath": "/Users/abhaydeshpande/Documents/micro_finance_arbitrum/contracts/container/BaseContainer.sol",
  "compiler": {
    "name": "solc",
    "version": "0.6.0+commit.26b70077.Emscripten.clang"
  },
  "schemaVersion": "3.4.13",
  "updatedAt": "2023-04-16T06:45:11.883Z",
  "devdoc": {
    "author": "abhaydeshpande",
    "details": "Contains all getters of contract addresses in the system",
    "methods": {},
    "title": "BaseContainer"
  },
  "userdoc": {
    "methods": {}
  }
}