{
  "contractName": "Contained",
  "abi": [
    {
      "inputs": [],
      "name": "container",
      "outputs": [
        {
          "internalType": "contract BaseContainer",
          "name": "",
          "type": "address"
        }
      ],
      "stateMutability": "view",
      "type": "function"
    },
    {
      "inputs": [],
      "name": "owner",
      "outputs": [
        {
          "internalType": "address payable",
          "name": "",
          "type": "address"
        }
      ],
      "stateMutability": "view",
      "type": "function"
    },
    {
      "inputs": [
        {
          "internalType": "address payable",
          "name": "newOwner",
          "type": "address"
        }
      ],
      "name": "transferOwnership",
      "outputs": [],
      "stateMutability": "nonpayable",
      "type": "function"
    },
    {
      "inputs": [
        {
          "internalType": "contract BaseContainer",
          "name": "_container",
          "type": "address"
        }
      ],
      "name": "setContainerEntry",
      "outputs": [],
      "stateMutability": "nonpayable",
      "type": "function"
    }
  ],
  "bytecode": "0x6080604052336000806101000a81548173ffffffffffffffffffffffffffffffffffffffff021916908373ffffffffffffffffffffffffffffffffffffffff160217905550610490806100536000396000f3fe608060405234801561001057600080fd5b506004361061004c5760003560e01c80630ab01647146100515780638da5cb5b1461009557806390e534a7146100df578063f2fde38b14610129575b600080fd5b6100936004803603602081101561006757600080fd5b81019080803573ffffffffffffffffffffffffffffffffffffffff16906020019092919050505061016d565b005b61009d610256565b604051808273ffffffffffffffffffffffffffffffffffffffff1673ffffffffffffffffffffffffffffffffffffffff16815260200191505060405180910390f35b6100e761027b565b604051808273ffffffffffffffffffffffffffffffffffffffff1673ffffffffffffffffffffffffffffffffffffffff16815260200191505060405180910390f35b61016b6004803603602081101561013f57600080fd5b81019080803573ffffffffffffffffffffffffffffffffffffffff1690602001909291905050506102a1565b005b6000809054906101000a900473ffffffffffffffffffffffffffffffffffffffff1673ffffffffffffffffffffffffffffffffffffffff163373ffffffffffffffffffffffffffffffffffffffff1614610212576040517f08c379a000000000000000000000000000000000000000000000000000000000815260040180806020018281038252602e81526020018061042d602e913960400191505060405180910390fd5b80600160006101000a81548173ffffffffffffffffffffffffffffffffffffffff021916908373ffffffffffffffffffffffffffffffffffffffff16021790555050565b6000809054906101000a900473ffffffffffffffffffffffffffffffffffffffff1681565b600160009054906101000a900473ffffffffffffffffffffffffffffffffffffffff1681565b6000809054906101000a900473ffffffffffffffffffffffffffffffffffffffff1673ffffffffffffffffffffffffffffffffffffffff163373ffffffffffffffffffffffffffffffffffffffff1614610346576040517f08c379a000000000000000000000000000000000000000000000000000000000815260040180806020018281038252602e81526020018061042d602e913960400191505060405180910390fd5b600073ffffffffffffffffffffffffffffffffffffffff168173ffffffffffffffffffffffffffffffffffffffff1614156103e9576040517f08c379a00000000000000000000000000000000000000000000000000000000081526004018080602001828103825260208152602001807f4e6577206f776e657220616464726573732063616e6e6f74206265207a65726f81525060200191505060405180910390fd5b806000806101000a81548173ffffffffffffffffffffffffffffffffffffffff021916908373ffffffffffffffffffffffffffffffffffffffff1602179055505056fe4f6e6c792074686520636f6e7472616374206f776e65722063616e2063616c6c20746869732066756e6374696f6ea2646970667358221220671d98785aeb50a871a0fd9f3ab755d7b34be48e22652b304cd0b20fc7e566d264736f6c63430006000033",
  "source": "// SPDX-License-Identifier: MIT\npragma solidity ^0.6.0;\n\nimport \"../auth/Owned.sol\";\nimport \"./ContractNames.sol\";\nimport \"./BaseContainer.sol\";\n\n\n/**\n    @title Contained\n    @dev Wraps the contracts and functions from unauthorized access outside the system\n    @author abhaydeshpande\n */\ncontract Contained is Owned, ContractNames {\n    BaseContainer public container;\n\n    function setContainerEntry(BaseContainer _container) public onlyOwner {\n        container = _container;\n    }\n\n    modifier onlyContained() {\n        require(address(container) != address(0), \"No Container\");\n        require(msg.sender == address(container), \"Only through Container\");\n        _;\n    }\n\n    modifier onlyContract(string memory name) {\n        require(address(container) != address(0), \"No Container\");\n        address allowedContract = container.getContract(name);\n        require(allowedContract != address(0), \"Invalid contract name\");\n        require(\n            msg.sender == allowedContract,\n            \"Only specific contract can access\"\n        );\n        _;\n    }\n}\n",
  "sourcePath": "/Users/abhaydeshpande/Documents/micro_finance_arbitrum/contracts/container/Contained.sol",
  "compiler": {
    "name": "solc",
    "version": "0.6.0+commit.26b70077.Emscripten.clang"
  },
  "schemaVersion": "3.4.13",
  "updatedAt": "2023-04-16T06:45:11.885Z",
  "devdoc": {
    "author": "abhaydeshpande",
    "details": "Wraps the contracts and functions from unauthorized access outside the system",
    "methods": {},
    "title": "Contained"
  },
  "userdoc": {
    "methods": {}
  }
}