{
  "contractName": "LoanDB",
  "abi": [
    {
      "inputs": [],
      "name": "container",
      "outputs": [
        {
          "internalType": "contract BaseContainer",
          "name": "",
          "type": "address"
        }
      ],
      "stateMutability": "view",
      "type": "function"
    },
    {
      "inputs": [],
      "name": "owner",
      "outputs": [
        {
          "internalType": "address payable",
          "name": "",
          "type": "address"
        }
      ],
      "stateMutability": "view",
      "type": "function"
    },
    {
      "inputs": [
        {
          "internalType": "contract BaseContainer",
          "name": "_container",
          "type": "address"
        }
      ],
      "name": "setContainerEntry",
      "outputs": [],
      "stateMutability": "nonpayable",
      "type": "function"
    },
    {
      "inputs": [
        {
          "internalType": "address payable",
          "name": "newOwner",
          "type": "address"
        }
      ],
      "name": "transferOwnership",
      "outputs": [],
      "stateMutability": "nonpayable",
      "type": "function"
    },
    {
      "inputs": [
        {
          "internalType": "bytes32",
          "name": "debtNo",
          "type": "bytes32"
        },
        {
          "internalType": "address",
          "name": "borrower",
          "type": "address"
        },
        {
          "internalType": "uint256",
          "name": "amountOfDebt",
          "type": "uint256"
        },
        {
          "internalType": "uint256",
          "name": "interest",
          "type": "uint256"
        }
      ],
      "name": "addDebt",
      "outputs": [],
      "stateMutability": "nonpayable",
      "type": "function"
    },
    {
      "inputs": [
        {
          "internalType": "bytes32",
          "name": "debtNo",
          "type": "bytes32"
        },
        {
          "internalType": "address",
          "name": "lender",
          "type": "address"
        }
      ],
      "name": "updateLender",
      "outputs": [],
      "stateMutability": "nonpayable",
      "type": "function"
    },
    {
      "inputs": [
        {
          "internalType": "bytes32",
          "name": "debtNo",
          "type": "bytes32"
        }
      ],
      "name": "completeDebt",
      "outputs": [],
      "stateMutability": "nonpayable",
      "type": "function"
    },
    {
      "inputs": [
        {
          "internalType": "address",
          "name": "sender",
          "type": "address"
        },
        {
          "internalType": "bool",
          "name": "state",
          "type": "bool"
        }
      ],
      "name": "setHaveDebt",
      "outputs": [],
      "stateMutability": "nonpayable",
      "type": "function"
    },
    {
      "inputs": [
        {
          "internalType": "address",
          "name": "sender",
          "type": "address"
        }
      ],
      "name": "checkHaveDebt",
      "outputs": [
        {
          "internalType": "bool",
          "name": "",
          "type": "bool"
        }
      ],
      "stateMutability": "view",
      "type": "function"
    },
    {
      "inputs": [
        {
          "internalType": "bytes32",
          "name": "debtNo",
          "type": "bytes32"
        }
      ],
      "name": "getLenderofDebt",
      "outputs": [
        {
          "internalType": "address",
          "name": "",
          "type": "address"
        }
      ],
      "stateMutability": "view",
      "type": "function"
    },
    {
      "inputs": [
        {
          "internalType": "bytes32",
          "name": "debtNo",
          "type": "bytes32"
        }
      ],
      "name": "getBorrowerofDebt",
      "outputs": [
        {
          "internalType": "address",
          "name": "",
          "type": "address"
        }
      ],
      "stateMutability": "view",
      "type": "function"
    },
    {
      "inputs": [
        {
          "internalType": "bytes32",
          "name": "debtNo",
          "type": "bytes32"
        }
      ],
      "name": "getAmountofDebt",
      "outputs": [
        {
          "internalType": "uint256",
          "name": "",
          "type": "uint256"
        }
      ],
      "stateMutability": "view",
      "type": "function"
    },
    {
      "inputs": [
        {
          "internalType": "bytes32",
          "name": "debtNo",
          "type": "bytes32"
        }
      ],
      "name": "getInterestofDebt",
      "outputs": [
        {
          "internalType": "uint256",
          "name": "",
          "type": "uint256"
        }
      ],
      "stateMutability": "view",
      "type": "function"
    },
    {
      "inputs": [
        {
          "internalType": "bytes32",
          "name": "debtNo",
          "type": "bytes32"
        }
      ],
      "name": "getStateofDebt",
      "outputs": [
        {
          "internalType": "uint8",
          "name": "",
          "type": "uint8"
        }
      ],
      "stateMutability": "view",
      "type": "function"
    },
    {
      "inputs": [
        {
          "internalType": "address",
          "name": "_address",
          "type": "address"
        }
      ],
      "name": "getDebtHistory",
      "outputs": [
        {
          "internalType": "bytes32[]",
          "name": "",
          "type": "bytes32[]"
        }
      ],
      "stateMutability": "view",
      "type": "function"
    },
    {
      "inputs": [
        {
          "internalType": "address",
          "name": "_address",
          "type": "address"
        }
      ],
      "name": "getLendHistory",
      "outputs": [
        {
          "internalType": "bytes32[]",
          "name": "",
          "type": "bytes32[]"
        }
      ],
      "stateMutability": "view",
      "type": "function"
    }
  ],
  "bytecode": "0x6080604052336000806101000a81548173ffffffffffffffffffffffffffffffffffffffff021916908373ffffffffffffffffffffffffffffffffffffffff160217905550612167806100536000396000f3fe608060405234801561001057600080fd5b50600436106101005760003560e01c80637a3b5db611610097578063f192eaf011610066578063f192eaf01461056f578063f2fde38b1461059d578063fafa084d146105e1578063fdd1b9d91461062357610100565b80637a3b5db61461041f5780638da5cb5b1461046d57806390e534a7146104b75780639b36d5751461050157610100565b80634aa43393116100d35780634aa4339314610298578063721d1902146102f457806373400caf14610336578063776052e0146103cf57610100565b80630ab01647146101055780630f2e9ef81461014957806314ba0aa81461019157806343505730146101ff575b600080fd5b6101476004803603602081101561011b57600080fd5b81019080803573ffffffffffffffffffffffffffffffffffffffff169060200190929190505050610685565b005b6101756004803603602081101561015f57600080fd5b810190808035906020019092919050505061076e565b604051808260ff1660ff16815260200191505060405180910390f35b6101bd600480360360208110156101a757600080fd5b810190808035906020019092919050505061079b565b604051808273ffffffffffffffffffffffffffffffffffffffff1673ffffffffffffffffffffffffffffffffffffffff16815260200191505060405180910390f35b6102416004803603602081101561021557600080fd5b81019080803573ffffffffffffffffffffffffffffffffffffffff1690602001909291905050506107db565b6040518080602001828103825283818151815260200191508051906020019060200280838360005b83811015610284578082015181840152602081019050610269565b505050509050019250505060405180910390f35b6102da600480360360208110156102ae57600080fd5b81019080803573ffffffffffffffffffffffffffffffffffffffff16906020019092919050505061096a565b604051808215151515815260200191505060405180910390f35b6103206004803603602081101561030a57600080fd5b81019080803590602001909291905050506109c0565b6040518082815260200191505060405180910390f35b6103786004803603602081101561034c57600080fd5b81019080803573ffffffffffffffffffffffffffffffffffffffff1690602001909291905050506109e0565b6040518080602001828103825283818151815260200191508051906020019060200280838360005b838110156103bb5780820151818401526020810190506103a0565b505050509050019250505060405180910390f35b61041d600480360360408110156103e557600080fd5b81019080803573ffffffffffffffffffffffffffffffffffffffff169060200190929190803515159060200190929190505050610b6f565b005b61046b6004803603604081101561043557600080fd5b8101908080359060200190929190803573ffffffffffffffffffffffffffffffffffffffff169060200190929190505050610f05565b005b610475611511565b604051808273ffffffffffffffffffffffffffffffffffffffff1673ffffffffffffffffffffffffffffffffffffffff16815260200191505060405180910390f35b6104bf611536565b604051808273ffffffffffffffffffffffffffffffffffffffff1673ffffffffffffffffffffffffffffffffffffffff16815260200191505060405180910390f35b61052d6004803603602081101561051757600080fd5b810190808035906020019092919050505061155c565b604051808273ffffffffffffffffffffffffffffffffffffffff1673ffffffffffffffffffffffffffffffffffffffff16815260200191505060405180910390f35b61059b6004803603602081101561058557600080fd5b810190808035906020019092919050505061159c565b005b6105df600480360360208110156105b357600080fd5b81019080803573ffffffffffffffffffffffffffffffffffffffff169060200190929190505050611994565b005b61060d600480360360208110156105f757600080fd5b8101908080359060200190929190505050611b1f565b6040518082815260200191505060405180910390f35b6106836004803603608081101561063957600080fd5b8101908080359060200190929190803573ffffffffffffffffffffffffffffffffffffffff1690602001909291908035906020019092919080359060200190929190505050611b3f565b005b6000809054906101000a900473ffffffffffffffffffffffffffffffffffffffff1673ffffffffffffffffffffffffffffffffffffffff163373ffffffffffffffffffffffffffffffffffffffff161461072a576040517f08c379a000000000000000000000000000000000000000000000000000000000815260040180806020018281038252602e815260200180612104602e913960400191505060405180910390fd5b80600160006101000a81548173ffffffffffffffffffffffffffffffffffffffff021916908373ffffffffffffffffffffffffffffffffffffffff16021790555050565b60006002600083815260200190815260200160002060040160009054906101000a900460ff169050919050565b60006002600083815260200190815260200160002060000160009054906101000a900473ffffffffffffffffffffffffffffffffffffffff169050919050565b60608173ffffffffffffffffffffffffffffffffffffffff163373ffffffffffffffffffffffffffffffffffffffff16148061086357506000809054906101000a900473ffffffffffffffffffffffffffffffffffffffff1673ffffffffffffffffffffffffffffffffffffffff163373ffffffffffffffffffffffffffffffffffffffff16145b6108d5576040517f08c379a00000000000000000000000000000000000000000000000000000000081526004018080602001828103825260138152602001807f556e617574686f72697a6564206163636573730000000000000000000000000081525060200191505060405180910390fd5b600360008373ffffffffffffffffffffffffffffffffffffffff1673ffffffffffffffffffffffffffffffffffffffff16815260200190815260200160002080548060200260200160405190810160405280929190818152602001828054801561095e57602002820191906000526020600020905b81548152602001906001019080831161094a575b50505050509050919050565b6000600560008373ffffffffffffffffffffffffffffffffffffffff1673ffffffffffffffffffffffffffffffffffffffff16815260200190815260200160002060009054906101000a900460ff169050919050565b600060026000838152602001908152602001600020600201549050919050565b60608173ffffffffffffffffffffffffffffffffffffffff163373ffffffffffffffffffffffffffffffffffffffff161480610a6857506000809054906101000a900473ffffffffffffffffffffffffffffffffffffffff1673ffffffffffffffffffffffffffffffffffffffff163373ffffffffffffffffffffffffffffffffffffffff16145b610ada576040517f08c379a00000000000000000000000000000000000000000000000000000000081526004018080602001828103825260138152602001807f556e617574686f72697a6564206163636573730000000000000000000000000081525060200191505060405180910390fd5b600460008373ffffffffffffffffffffffffffffffffffffffff1673ffffffffffffffffffffffffffffffffffffffff168152602001908152602001600020805480602002602001604051908101604052809291908181526020018280548015610b6357602002820191906000526020600020905b815481526020019060010190808311610b4f575b50505050509050919050565b6040518060400160405280600b81526020017f4c6f616e4d616e61676572000000000000000000000000000000000000000000815250600073ffffffffffffffffffffffffffffffffffffffff16600160009054906101000a900473ffffffffffffffffffffffffffffffffffffffff1673ffffffffffffffffffffffffffffffffffffffff161415610c6a576040517f08c379a000000000000000000000000000000000000000000000000000000000815260040180806020018281038252600c8152602001807f4e6f20436f6e7461696e6572000000000000000000000000000000000000000081525060200191505060405180910390fd5b6000600160009054906101000a900473ffffffffffffffffffffffffffffffffffffffff1673ffffffffffffffffffffffffffffffffffffffff166335817773836040518263ffffffff1660e01b81526004018080602001828103825283818151815260200191508051906020019080838360005b83811015610cfa578082015181840152602081019050610cdf565b50505050905090810190601f168015610d275780820380516001836020036101000a031916815260200191505b509250505060206040518083038186803b158015610d4457600080fd5b505afa158015610d58573d6000803e3d6000fd5b505050506040513d6020811015610d6e57600080fd5b81019080805190602001909291905050509050600073ffffffffffffffffffffffffffffffffffffffff168173ffffffffffffffffffffffffffffffffffffffff161415610e24576040517f08c379a00000000000000000000000000000000000000000000000000000000081526004018080602001828103825260158152602001807f496e76616c696420636f6e7472616374206e616d65000000000000000000000081525060200191505060405180910390fd5b8073ffffffffffffffffffffffffffffffffffffffff163373ffffffffffffffffffffffffffffffffffffffff1614610ea8576040517f08c379a00000000000000000000000000000000000000000000000000000000081526004018080602001828103825260218152602001806120e36021913960400191505060405180910390fd5b82600560008673ffffffffffffffffffffffffffffffffffffffff1673ffffffffffffffffffffffffffffffffffffffff16815260200190815260200160002060006101000a81548160ff02191690831515021790555050505050565b6040518060400160405280600b81526020017f4c6f616e4d616e61676572000000000000000000000000000000000000000000815250600073ffffffffffffffffffffffffffffffffffffffff16600160009054906101000a900473ffffffffffffffffffffffffffffffffffffffff1673ffffffffffffffffffffffffffffffffffffffff161415611000576040517f08c379a000000000000000000000000000000000000000000000000000000000815260040180806020018281038252600c8152602001807f4e6f20436f6e7461696e6572000000000000000000000000000000000000000081525060200191505060405180910390fd5b6000600160009054906101000a900473ffffffffffffffffffffffffffffffffffffffff1673ffffffffffffffffffffffffffffffffffffffff166335817773836040518263ffffffff1660e01b81526004018080602001828103825283818151815260200191508051906020019080838360005b83811015611090578082015181840152602081019050611075565b50505050905090810190601f1680156110bd5780820380516001836020036101000a031916815260200191505b509250505060206040518083038186803b1580156110da57600080fd5b505afa1580156110ee573d6000803e3d6000fd5b505050506040513d602081101561110457600080fd5b81019080805190602001909291905050509050600073ffffffffffffffffffffffffffffffffffffffff168173ffffffffffffffffffffffffffffffffffffffff1614156111ba576040517f08c379a00000000000000000000000000000000000000000000000000000000081526004018080602001828103825260158152602001807f496e76616c696420636f6e7472616374206e616d65000000000000000000000081525060200191505060405180910390fd5b8073ffffffffffffffffffffffffffffffffffffffff163373ffffffffffffffffffffffffffffffffffffffff161461123e576040517f08c379a00000000000000000000000000000000000000000000000000000000081526004018080602001828103825260218152602001806120e36021913960400191505060405180910390fd5b600073ffffffffffffffffffffffffffffffffffffffff168373ffffffffffffffffffffffffffffffffffffffff1614156112e1576040517f08c379a00000000000000000000000000000000000000000000000000000000081526004018080602001828103825260168152602001807f496e76616c6964206c656e64657220616464726573730000000000000000000081525060200191505060405180910390fd5b60006002600086815260200190815260200160002090506000816002015411611372576040517f08c379a00000000000000000000000000000000000000000000000000000000081526004018080602001828103825260138152602001807f4465627420646f6573206e6f742065786973740000000000000000000000000081525060200191505060405180910390fd5b600073ffffffffffffffffffffffffffffffffffffffff168160000160009054906101000a900473ffffffffffffffffffffffffffffffffffffffff1673ffffffffffffffffffffffffffffffffffffffff1614611438576040517f08c379a000000000000000000000000000000000000000000000000000000000815260040180806020018281038252601a8152602001807f4c656e64657220697320616c72656164792061737369676e656400000000000081525060200191505060405180910390fd5b838160000160006101000a81548173ffffffffffffffffffffffffffffffffffffffff021916908373ffffffffffffffffffffffffffffffffffffffff1602179055506001600281111561148857fe5b8160040160006101000a81548160ff021916908360ff160217905550600460008573ffffffffffffffffffffffffffffffffffffffff1673ffffffffffffffffffffffffffffffffffffffff1681526020019081526020016000208590806001815401808255809150506001900390600052602060002001600090919091909150555050505050565b6000809054906101000a900473ffffffffffffffffffffffffffffffffffffffff1681565b600160009054906101000a900473ffffffffffffffffffffffffffffffffffffffff1681565b60006002600083815260200190815260200160002060010160009054906101000a900473ffffffffffffffffffffffffffffffffffffffff169050919050565b6040518060400160405280600b81526020017f4c6f616e4d616e61676572000000000000000000000000000000000000000000815250600073ffffffffffffffffffffffffffffffffffffffff16600160009054906101000a900473ffffffffffffffffffffffffffffffffffffffff1673ffffffffffffffffffffffffffffffffffffffff161415611697576040517f08c379a000000000000000000000000000000000000000000000000000000000815260040180806020018281038252600c8152602001807f4e6f20436f6e7461696e6572000000000000000000000000000000000000000081525060200191505060405180910390fd5b6000600160009054906101000a900473ffffffffffffffffffffffffffffffffffffffff1673ffffffffffffffffffffffffffffffffffffffff166335817773836040518263ffffffff1660e01b81526004018080602001828103825283818151815260200191508051906020019080838360005b8381101561172757808201518184015260208101905061170c565b50505050905090810190601f1680156117545780820380516001836020036101000a031916815260200191505b509250505060206040518083038186803b15801561177157600080fd5b505afa158015611785573d6000803e3d6000fd5b505050506040513d602081101561179b57600080fd5b81019080805190602001909291905050509050600073ffffffffffffffffffffffffffffffffffffffff168173ffffffffffffffffffffffffffffffffffffffff161415611851576040517f08c379a00000000000000000000000000000000000000000000000000000000081526004018080602001828103825260158152602001807f496e76616c696420636f6e7472616374206e616d65000000000000000000000081525060200191505060405180910390fd5b8073ffffffffffffffffffffffffffffffffffffffff163373ffffffffffffffffffffffffffffffffffffffff16146118d5576040517f08c379a00000000000000000000000000000000000000000000000000000000081526004018080602001828103825260218152602001806120e36021913960400191505060405180910390fd5b60006002600085815260200190815260200160002090506000816002015411611966576040517f08c379a00000000000000000000000000000000000000000000000000000000081526004018080602001828103825260138152602001807f4465627420646f6573206e6f742065786973740000000000000000000000000081525060200191505060405180910390fd5b60028081111561197257fe5b8160040160006101000a81548160ff021916908360ff16021790555050505050565b6000809054906101000a900473ffffffffffffffffffffffffffffffffffffffff1673ffffffffffffffffffffffffffffffffffffffff163373ffffffffffffffffffffffffffffffffffffffff1614611a39576040517f08c379a000000000000000000000000000000000000000000000000000000000815260040180806020018281038252602e815260200180612104602e913960400191505060405180910390fd5b600073ffffffffffffffffffffffffffffffffffffffff168173ffffffffffffffffffffffffffffffffffffffff161415611adc576040517f08c379a00000000000000000000000000000000000000000000000000000000081526004018080602001828103825260208152602001807f4e6577206f776e657220616464726573732063616e6e6f74206265207a65726f81525060200191505060405180910390fd5b806000806101000a81548173ffffffffffffffffffffffffffffffffffffffff021916908373ffffffffffffffffffffffffffffffffffffffff16021790555050565b600060026000838152602001908152602001600020600301549050919050565b6040518060400160405280600b81526020017f4c6f616e4d616e61676572000000000000000000000000000000000000000000815250600073ffffffffffffffffffffffffffffffffffffffff16600160009054906101000a900473ffffffffffffffffffffffffffffffffffffffff1673ffffffffffffffffffffffffffffffffffffffff161415611c3a576040517f08c379a000000000000000000000000000000000000000000000000000000000815260040180806020018281038252600c8152602001807f4e6f20436f6e7461696e6572000000000000000000000000000000000000000081525060200191505060405180910390fd5b6000600160009054906101000a900473ffffffffffffffffffffffffffffffffffffffff1673ffffffffffffffffffffffffffffffffffffffff166335817773836040518263ffffffff1660e01b81526004018080602001828103825283818151815260200191508051906020019080838360005b83811015611cca578082015181840152602081019050611caf565b50505050905090810190601f168015611cf75780820380516001836020036101000a031916815260200191505b509250505060206040518083038186803b158015611d1457600080fd5b505afa158015611d28573d6000803e3d6000fd5b505050506040513d6020811015611d3e57600080fd5b81019080805190602001909291905050509050600073ffffffffffffffffffffffffffffffffffffffff168173ffffffffffffffffffffffffffffffffffffffff161415611df4576040517f08c379a00000000000000000000000000000000000000000000000000000000081526004018080602001828103825260158152602001807f496e76616c696420636f6e7472616374206e616d65000000000000000000000081525060200191505060405180910390fd5b8073ffffffffffffffffffffffffffffffffffffffff163373ffffffffffffffffffffffffffffffffffffffff1614611e78576040517f08c379a00000000000000000000000000000000000000000000000000000000081526004018080602001828103825260218152602001806120e36021913960400191505060405180910390fd5b60008411611eee576040517f08c379a00000000000000000000000000000000000000000000000000000000081526004018080602001828103825260138152602001807f496e76616c6964206465627420616d6f756e740000000000000000000000000081525060200191505060405180910390fd5b60008311611f64576040517f08c379a00000000000000000000000000000000000000000000000000000000081526004018080602001828103825260158152602001807f496e76616c696420696e7465726573742072617465000000000000000000000081525060200191505060405180910390fd5b60006002600088815260200190815260200160002090506000816002015414611ff5576040517f08c379a00000000000000000000000000000000000000000000000000000000081526004018080602001828103825260138152602001807f4465627420616c7265616479206578697374730000000000000000000000000081525060200191505060405180910390fd5b858160010160006101000a81548173ffffffffffffffffffffffffffffffffffffffff021916908373ffffffffffffffffffffffffffffffffffffffff1602179055508481600201819055508381600301819055506000600281111561205757fe5b8160040160006101000a81548160ff021916908360ff160217905550600360008773ffffffffffffffffffffffffffffffffffffffff1673ffffffffffffffffffffffffffffffffffffffff1681526020019081526020016000208790806001815401808255809150506001900390600052602060002001600090919091909150555050505050505056fe4f6e6c7920737065636966696320636f6e74726163742063616e206163636573734f6e6c792074686520636f6e7472616374206f776e65722063616e2063616c6c20746869732066756e6374696f6ea2646970667358221220ba80d61cb31dafacb8003840d236e85a8517295feaeb4e21a6beab95515082e964736f6c63430006000033",
  "source": "// SPDX-License-Identifier: MIT\npragma solidity ^0.6.0;\n\nimport \"../lib/SafeMath.sol\";\nimport \"../container/Contained.sol\";\n\n/**\n    @title LoanDB\n    @dev Stores all the loan details.\n    @author abhaydeshpande\n */\ncontract LoanDB is Contained {\n    using SafeMath for uint256;\n    enum LoanState {\n    REQUESTED,\n    FUNDED,\n    PAID\n}\n\nstruct Debt {\n    address lender;\n    address borrower;\n    uint256 amountOfDebt;\n    uint256 interest;\n    uint8 loanState;\n}\n\nmapping(bytes32 => Debt) private debtInfo;\nmapping(address => bytes32[]) private debtHistory;\nmapping(address => bytes32[]) private lendHistory;\nmapping(address => bool) private haveDebt;\n\nfunction addDebt(\n    bytes32 debtNo,\n    address borrower,\n    uint256 amountOfDebt,\n    uint256 interest\n) external onlyContract(CONTRACT_LOAN_MANAGER) {\n    require(amountOfDebt > 0, \"Invalid debt amount\");\n    require(interest > 0, \"Invalid interest rate\");\n\n    Debt storage newDebt = debtInfo[debtNo];\n    require(newDebt.amountOfDebt == 0, \"Debt already exists\");\n\n    newDebt.borrower = borrower;\n    newDebt.amountOfDebt = amountOfDebt;\n    newDebt.interest = interest;\n    newDebt.loanState = uint8(LoanState.REQUESTED);\n\n    debtHistory[borrower].push(debtNo);\n}\n\nfunction updateLender(bytes32 debtNo, address lender)\n    external\n    onlyContract(CONTRACT_LOAN_MANAGER)\n{\n    require(lender != address(0), \"Invalid lender address\");\n\n    Debt storage updatedDebt = debtInfo[debtNo];\n    require(updatedDebt.amountOfDebt > 0, \"Debt does not exist\");\n    require(\n        updatedDebt.lender == address(0),\n        \"Lender is already assigned\"\n    );\n\n    updatedDebt.lender = lender;\n    updatedDebt.loanState = uint8(LoanState.FUNDED);\n\n    lendHistory[lender].push(debtNo);\n}\n\nfunction completeDebt(bytes32 debtNo)\n    external\n    onlyContract(CONTRACT_LOAN_MANAGER)\n{\n    Debt storage completedDebt = debtInfo[debtNo];\n    require(completedDebt.amountOfDebt > 0, \"Debt does not exist\");\n\n    completedDebt.loanState = uint8(LoanState.PAID);\n}\n\nfunction setHaveDebt(address sender, bool state)\n    external\n    onlyContract(CONTRACT_LOAN_MANAGER)\n{\n    haveDebt[sender] = state;\n}\n\nfunction checkHaveDebt(address sender) external view returns (bool) {\n    return haveDebt[sender];\n}\n\nfunction getLenderofDebt(bytes32 debtNo) external view returns (address) {\n    return debtInfo[debtNo].lender;\n}\n\nfunction getBorrowerofDebt(bytes32 debtNo) external view returns (address) {\n    return debtInfo[debtNo].borrower;\n}\n\nfunction getAmountofDebt(bytes32 debtNo) external view returns (uint256) {\n    return debtInfo[debtNo].amountOfDebt;\n}\n\nfunction getInterestofDebt(bytes32 debtNo) external view returns (uint256) {\n    return debtInfo[debtNo].interest;\n}\n\nfunction getStateofDebt(bytes32 debtNo) external view returns (uint8) {\n    return debtInfo[debtNo].loanState;\n}\n\nfunction getDebtHistory(address _address)\n    external\n    view\n    returns (bytes32[] memory)\n{\n    require(msg.sender == _address || msg.sender == owner, \"Unauthorized access\");\n\n    return debtHistory[_address];\n}\n\nfunction getLendHistory(address _address)\n    external\n    view\n    returns (bytes32[] memory)\n{\n    require(msg.sender == _address || msg.sender == owner, \"Unauthorized access\");\n\n    return lendHistory[_address];\n}}\n\n   \n",
  "sourcePath": "/Users/abhaydeshpande/Documents/micro_finance_arbitrum/contracts/database/LoanDB.sol",
  "compiler": {
    "name": "solc",
    "version": "0.6.0+commit.26b70077.Emscripten.clang"
  },
  "schemaVersion": "3.4.13",
  "updatedAt": "2023-04-16T06:45:11.894Z",
  "devdoc": {
    "author": "abhaydeshpande",
    "details": "Stores all the loan details.",
    "methods": {},
    "title": "LoanDB"
  },
  "userdoc": {
    "methods": {}
  }
}