{
  "contractName": "LoanManager",
  "abi": [
    {
      "anonymous": false,
      "inputs": [
        {
          "indexed": false,
          "internalType": "bytes32",
          "name": "debtNo",
          "type": "bytes32"
        },
        {
          "indexed": false,
          "internalType": "address",
          "name": "_lender",
          "type": "address"
        }
      ],
      "name": "Funded",
      "type": "event"
    },
    {
      "anonymous": false,
      "inputs": [
        {
          "indexed": false,
          "internalType": "bytes32",
          "name": "debtNo",
          "type": "bytes32"
        }
      ],
      "name": "PaidBack",
      "type": "event"
    },
    {
      "anonymous": false,
      "inputs": [
        {
          "indexed": false,
          "internalType": "bytes32",
          "name": "debtNo",
          "type": "bytes32"
        },
        {
          "indexed": false,
          "internalType": "address",
          "name": "_owner",
          "type": "address"
        },
        {
          "indexed": false,
          "internalType": "uint256",
          "name": "_amount",
          "type": "uint256"
        }
      ],
      "name": "Requested",
      "type": "event"
    },
    {
      "inputs": [],
      "name": "container",
      "outputs": [
        {
          "internalType": "contract BaseContainer",
          "name": "",
          "type": "address"
        }
      ],
      "stateMutability": "view",
      "type": "function"
    },
    {
      "inputs": [],
      "name": "owner",
      "outputs": [
        {
          "internalType": "address payable",
          "name": "",
          "type": "address"
        }
      ],
      "stateMutability": "view",
      "type": "function"
    },
    {
      "inputs": [
        {
          "internalType": "contract BaseContainer",
          "name": "_container",
          "type": "address"
        }
      ],
      "name": "setContainerEntry",
      "outputs": [],
      "stateMutability": "nonpayable",
      "type": "function"
    },
    {
      "inputs": [
        {
          "internalType": "address payable",
          "name": "newOwner",
          "type": "address"
        }
      ],
      "name": "transferOwnership",
      "outputs": [],
      "stateMutability": "nonpayable",
      "type": "function"
    },
    {
      "inputs": [],
      "name": "init",
      "outputs": [],
      "stateMutability": "nonpayable",
      "type": "function"
    },
    {
      "inputs": [
        {
          "internalType": "uint104",
          "name": "_amount",
          "type": "uint104"
        }
      ],
      "name": "setRewardToken",
      "outputs": [],
      "stateMutability": "nonpayable",
      "type": "function"
    },
    {
      "inputs": [
        {
          "internalType": "bytes32",
          "name": "_debtNo",
          "type": "bytes32"
        },
        {
          "internalType": "address",
          "name": "_borrower",
          "type": "address"
        },
        {
          "internalType": "uint256",
          "name": "_amount",
          "type": "uint256"
        }
      ],
      "name": "requestLoan",
      "outputs": [],
      "stateMutability": "nonpayable",
      "type": "function"
    },
    {
      "inputs": [
        {
          "internalType": "bytes32",
          "name": "_debtNo",
          "type": "bytes32"
        },
        {
          "internalType": "address",
          "name": "_sender",
          "type": "address"
        }
      ],
      "name": "lendLoan",
      "outputs": [],
      "stateMutability": "payable",
      "type": "function"
    },
    {
      "inputs": [
        {
          "internalType": "bytes32",
          "name": "_debtNo",
          "type": "bytes32"
        },
        {
          "internalType": "address",
          "name": "_sender",
          "type": "address"
        }
      ],
      "name": "payLoan",
      "outputs": [],
      "stateMutability": "payable",
      "type": "function"
    }
  ],
  "bytecode": "0x6080604052600a600260006101000a8154816cffffffffffffffffffffffffff02191690836cffffffffffffffffffffffffff160217905550336000806101000a81548173ffffffffffffffffffffffffffffffffffffffff021916908373ffffffffffffffffffffffffffffffffffffffff1602179055506128a0806100876000396000f3fe6080604052600436106100865760003560e01c8063b63ae3bd11610059578063b63ae3bd146101ef578063e1c7392a1461023d578063f2fde38b14610254578063f6adc754146102a5578063f9a57f61146102ef57610086565b80630ab016471461008b5780638da5cb5b146100dc57806390e534a71461013357806399b53cbe1461018a575b600080fd5b34801561009757600080fd5b506100da600480360360208110156100ae57600080fd5b81019080803573ffffffffffffffffffffffffffffffffffffffff16906020019092919050505061033d565b005b3480156100e857600080fd5b506100f1610426565b604051808273ffffffffffffffffffffffffffffffffffffffff1673ffffffffffffffffffffffffffffffffffffffff16815260200191505060405180910390f35b34801561013f57600080fd5b5061014861044b565b604051808273ffffffffffffffffffffffffffffffffffffffff1673ffffffffffffffffffffffffffffffffffffffff16815260200191505060405180910390f35b34801561019657600080fd5b506101ed600480360360608110156101ad57600080fd5b8101908080359060200190929190803573ffffffffffffffffffffffffffffffffffffffff16906020019092919080359060200190929190505050610471565b005b61023b6004803603604081101561020557600080fd5b8101908080359060200190929190803573ffffffffffffffffffffffffffffffffffffffff169060200190929190505050610a70565b005b34801561024957600080fd5b50610252611496565b005b34801561026057600080fd5b506102a36004803603602081101561027757600080fd5b81019080803573ffffffffffffffffffffffffffffffffffffffff1690602001909291905050506119d5565b005b3480156102b157600080fd5b506102ed600480360360208110156102c857600080fd5b8101908080356cffffffffffffffffffffffffff169060200190929190505050611b60565b005b61033b6004803603604081101561030557600080fd5b8101908080359060200190929190803573ffffffffffffffffffffffffffffffffffffffff169060200190929190505050611c3b565b005b6000809054906101000a900473ffffffffffffffffffffffffffffffffffffffff1673ffffffffffffffffffffffffffffffffffffffff163373ffffffffffffffffffffffffffffffffffffffff16146103e2576040517f08c379a000000000000000000000000000000000000000000000000000000000815260040180806020018281038252602e8152602001806127fb602e913960400191505060405180910390fd5b80600160006101000a81548173ffffffffffffffffffffffffffffffffffffffff021916908373ffffffffffffffffffffffffffffffffffffffff16021790555050565b6000809054906101000a900473ffffffffffffffffffffffffffffffffffffffff1681565b600160009054906101000a900473ffffffffffffffffffffffffffffffffffffffff1681565b600073ffffffffffffffffffffffffffffffffffffffff16600160009054906101000a900473ffffffffffffffffffffffffffffffffffffffff1673ffffffffffffffffffffffffffffffffffffffff161415610536576040517f08c379a000000000000000000000000000000000000000000000000000000000815260040180806020018281038252600c8152602001807f4e6f20436f6e7461696e6572000000000000000000000000000000000000000081525060200191505060405180910390fd5b600160009054906101000a900473ffffffffffffffffffffffffffffffffffffffff1673ffffffffffffffffffffffffffffffffffffffff163373ffffffffffffffffffffffffffffffffffffffff16146105f9576040517f08c379a00000000000000000000000000000000000000000000000000000000081526004018080602001828103825260168152602001807f4f6e6c79207468726f75676820436f6e7461696e65720000000000000000000081525060200191505060405180910390fd5b662386f26fc10000811015610659576040517f08c379a00000000000000000000000000000000000000000000000000000000081526004018080602001828103825260218152602001806128296021913960400191505060405180910390fd5b600073ffffffffffffffffffffffffffffffffffffffff16600360009054906101000a900473ffffffffffffffffffffffffffffffffffffffff1673ffffffffffffffffffffffffffffffffffffffff16639b36d575856040518263ffffffff1660e01b81526004018082815260200191505060206040518083038186803b1580156106e457600080fd5b505afa1580156106f8573d6000803e3d6000fd5b505050506040513d602081101561070e57600080fd5b810190808051906020019092919050505073ffffffffffffffffffffffffffffffffffffffff16146107a8576040517f08c379a000000000000000000000000000000000000000000000000000000000815260040180806020018281038252600b8152602001807f646562742065786973747300000000000000000000000000000000000000000081525060200191505060405180910390fd5b60001515600360009054906101000a900473ffffffffffffffffffffffffffffffffffffffff1673ffffffffffffffffffffffffffffffffffffffff16634aa43393846040518263ffffffff1660e01b8152600401808273ffffffffffffffffffffffffffffffffffffffff1673ffffffffffffffffffffffffffffffffffffffff16815260200191505060206040518083038186803b15801561084b57600080fd5b505afa15801561085f573d6000803e3d6000fd5b505050506040513d602081101561087557600080fd5b81019080805190602001909291905050501515146108fb576040517f08c379a00000000000000000000000000000000000000000000000000000000081526004018080602001828103825260118152602001807f616c72656164792068617665204465627400000000000000000000000000000081525060200191505060405180910390fd5b600061092460646109166002856125dc90919063ffffffff16565b61266290919063ffffffff16565b9050600360009054906101000a900473ffffffffffffffffffffffffffffffffffffffff1673ffffffffffffffffffffffffffffffffffffffff1663fdd1b9d9858585856040518563ffffffff1660e01b8152600401808581526020018473ffffffffffffffffffffffffffffffffffffffff1673ffffffffffffffffffffffffffffffffffffffff168152602001838152602001828152602001945050505050600060405180830381600087803b1580156109df57600080fd5b505af11580156109f3573d6000803e3d6000fd5b505050507fe74b15955560ba6e21cd0c19af10edc840d1d3cdba5a7f433b17a3ab3d5c7019848484604051808481526020018373ffffffffffffffffffffffffffffffffffffffff1673ffffffffffffffffffffffffffffffffffffffff168152602001828152602001935050505060405180910390a150505050565b600073ffffffffffffffffffffffffffffffffffffffff16600160009054906101000a900473ffffffffffffffffffffffffffffffffffffffff1673ffffffffffffffffffffffffffffffffffffffff161415610b35576040517f08c379a000000000000000000000000000000000000000000000000000000000815260040180806020018281038252600c8152602001807f4e6f20436f6e7461696e6572000000000000000000000000000000000000000081525060200191505060405180910390fd5b600160009054906101000a900473ffffffffffffffffffffffffffffffffffffffff1673ffffffffffffffffffffffffffffffffffffffff163373ffffffffffffffffffffffffffffffffffffffff1614610bf8576040517f08c379a00000000000000000000000000000000000000000000000000000000081526004018080602001828103825260168152602001807f4f6e6c79207468726f75676820436f6e7461696e65720000000000000000000081525060200191505060405180910390fd5b6000600360009054906101000a900473ffffffffffffffffffffffffffffffffffffffff1673ffffffffffffffffffffffffffffffffffffffff1663721d1902846040518263ffffffff1660e01b81526004018082815260200191505060206040518083038186803b158015610c6d57600080fd5b505afa158015610c81573d6000803e3d6000fd5b505050506040513d6020811015610c9757600080fd5b810190808051906020019092919050505090506000600360009054906101000a900473ffffffffffffffffffffffffffffffffffffffff1673ffffffffffffffffffffffffffffffffffffffff16639b36d575856040518263ffffffff1660e01b81526004018082815260200191505060206040518083038186803b158015610d1f57600080fd5b505afa158015610d33573d6000803e3d6000fd5b505050506040513d6020811015610d4957600080fd5b8101908080519060200190929190505050905060006002811115610d6957fe5b600360009054906101000a900473ffffffffffffffffffffffffffffffffffffffff1673ffffffffffffffffffffffffffffffffffffffff16630f2e9ef8866040518263ffffffff1660e01b81526004018082815260200191505060206040518083038186803b158015610ddc57600080fd5b505afa158015610df0573d6000803e3d6000fd5b505050506040513d6020811015610e0657600080fd5b810190808051906020019092919050505060ff1614610e8d576040517f08c379a00000000000000000000000000000000000000000000000000000000081526004018080602001828103825260168152602001807f4e6f7420696e207265717565737465642073746174650000000000000000000081525060200191505060405180910390fd5b81341015610f03576040517f08c379a00000000000000000000000000000000000000000000000000000000081526004018080602001828103825260118152602001807f4e6f7420656e6f75676820616d6f756e7400000000000000000000000000000081525060200191505060405180910390fd5b600073ffffffffffffffffffffffffffffffffffffffff168173ffffffffffffffffffffffffffffffffffffffff161415610fa6576040517f08c379a00000000000000000000000000000000000000000000000000000000081526004018080602001828103825260148152602001807f44656274206973206e6f74206578697374696e6700000000000000000000000081525060200191505060405180910390fd5b60001515600360009054906101000a900473ffffffffffffffffffffffffffffffffffffffff1673ffffffffffffffffffffffffffffffffffffffff16634aa43393836040518263ffffffff1660e01b8152600401808273ffffffffffffffffffffffffffffffffffffffff1673ffffffffffffffffffffffffffffffffffffffff16815260200191505060206040518083038186803b15801561104957600080fd5b505afa15801561105d573d6000803e3d6000fd5b505050506040513d602081101561107357600080fd5b81019080805190602001909291905050501515146110f9576040517f08c379a00000000000000000000000000000000000000000000000000000000081526004018080602001828103825260118152602001807f616c72656164792068617665204465627400000000000000000000000000000081525060200191505060405180910390fd5b600560009054906101000a900473ffffffffffffffffffffffffffffffffffffffff1673ffffffffffffffffffffffffffffffffffffffff1663f340fa0134836040518363ffffffff1660e01b8152600401808273ffffffffffffffffffffffffffffffffffffffff1673ffffffffffffffffffffffffffffffffffffffff1681526020019150506000604051808303818588803b15801561119a57600080fd5b505af11580156111ae573d6000803e3d6000fd5b5050505050600360009054906101000a900473ffffffffffffffffffffffffffffffffffffffff1673ffffffffffffffffffffffffffffffffffffffff16637a3b5db685856040518363ffffffff1660e01b8152600401808381526020018273ffffffffffffffffffffffffffffffffffffffff1673ffffffffffffffffffffffffffffffffffffffff16815260200192505050600060405180830381600087803b15801561125c57600080fd5b505af1158015611270573d6000803e3d6000fd5b50505050600360009054906101000a900473ffffffffffffffffffffffffffffffffffffffff1673ffffffffffffffffffffffffffffffffffffffff1663776052e08260016040518363ffffffff1660e01b8152600401808373ffffffffffffffffffffffffffffffffffffffff1673ffffffffffffffffffffffffffffffffffffffff1681526020018215151515815260200192505050600060405180830381600087803b15801561132257600080fd5b505af1158015611336573d6000803e3d6000fd5b50505050600460009054906101000a900473ffffffffffffffffffffffffffffffffffffffff1673ffffffffffffffffffffffffffffffffffffffff166343d7cce684600260009054906101000a90046cffffffffffffffffffffffffff166040518363ffffffff1660e01b8152600401808373ffffffffffffffffffffffffffffffffffffffff1673ffffffffffffffffffffffffffffffffffffffff168152602001826cffffffffffffffffffffffffff16815260200192505050600060405180830381600087803b15801561140d57600080fd5b505af1158015611421573d6000803e3d6000fd5b505050507feb6f0438fbf469284101736c2fbab1284e8afb109fba6921fcbc7a6faf6d6c608484604051808381526020018273ffffffffffffffffffffffffffffffffffffffff1673ffffffffffffffffffffffffffffffffffffffff1681526020019250505060405180910390a150505050565b6000809054906101000a900473ffffffffffffffffffffffffffffffffffffffff1673ffffffffffffffffffffffffffffffffffffffff163373ffffffffffffffffffffffffffffffffffffffff161461153b576040517f08c379a000000000000000000000000000000000000000000000000000000000815260040180806020018281038252602e8152602001806127fb602e913960400191505060405180910390fd5b600160009054906101000a900473ffffffffffffffffffffffffffffffffffffffff1673ffffffffffffffffffffffffffffffffffffffff1663358177736040518060400160405280600681526020017f4c6f616e444200000000000000000000000000000000000000000000000000008152506040518263ffffffff1660e01b81526004018080602001828103825283818151815260200191508051906020019080838360005b838110156115fe5780820151818401526020810190506115e3565b50505050905090810190601f16801561162b5780820380516001836020036101000a031916815260200191505b509250505060206040518083038186803b15801561164857600080fd5b505afa15801561165c573d6000803e3d6000fd5b505050506040513d602081101561167257600080fd5b8101908080519060200190929190505050600360006101000a81548173ffffffffffffffffffffffffffffffffffffffff021916908373ffffffffffffffffffffffffffffffffffffffff160217905550600160009054906101000a900473ffffffffffffffffffffffffffffffffffffffff1673ffffffffffffffffffffffffffffffffffffffff1663358177736040518060400160405280600a81526020017f4865617274546f6b656e000000000000000000000000000000000000000000008152506040518263ffffffff1660e01b81526004018080602001828103825283818151815260200191508051906020019080838360005b8381101561178657808201518184015260208101905061176b565b50505050905090810190601f1680156117b35780820380516001836020036101000a031916815260200191505b509250505060206040518083038186803b1580156117d057600080fd5b505afa1580156117e4573d6000803e3d6000fd5b505050506040513d60208110156117fa57600080fd5b8101908080519060200190929190505050600460006101000a81548173ffffffffffffffffffffffffffffffffffffffff021916908373ffffffffffffffffffffffffffffffffffffffff160217905550600160009054906101000a900473ffffffffffffffffffffffffffffffffffffffff1673ffffffffffffffffffffffffffffffffffffffff1663358177736040518060400160405280600681526020017f57616c6c657400000000000000000000000000000000000000000000000000008152506040518263ffffffff1660e01b81526004018080602001828103825283818151815260200191508051906020019080838360005b8381101561190e5780820151818401526020810190506118f3565b50505050905090810190601f16801561193b5780820380516001836020036101000a031916815260200191505b509250505060206040518083038186803b15801561195857600080fd5b505afa15801561196c573d6000803e3d6000fd5b505050506040513d602081101561198257600080fd5b8101908080519060200190929190505050600560006101000a81548173ffffffffffffffffffffffffffffffffffffffff021916908373ffffffffffffffffffffffffffffffffffffffff160217905550565b6000809054906101000a900473ffffffffffffffffffffffffffffffffffffffff1673ffffffffffffffffffffffffffffffffffffffff163373ffffffffffffffffffffffffffffffffffffffff1614611a7a576040517f08c379a000000000000000000000000000000000000000000000000000000000815260040180806020018281038252602e8152602001806127fb602e913960400191505060405180910390fd5b600073ffffffffffffffffffffffffffffffffffffffff168173ffffffffffffffffffffffffffffffffffffffff161415611b1d576040517f08c379a00000000000000000000000000000000000000000000000000000000081526004018080602001828103825260208152602001807f4e6577206f776e657220616464726573732063616e6e6f74206265207a65726f81525060200191505060405180910390fd5b806000806101000a81548173ffffffffffffffffffffffffffffffffffffffff021916908373ffffffffffffffffffffffffffffffffffffffff16021790555050565b6000809054906101000a900473ffffffffffffffffffffffffffffffffffffffff1673ffffffffffffffffffffffffffffffffffffffff163373ffffffffffffffffffffffffffffffffffffffff1614611c05576040517f08c379a000000000000000000000000000000000000000000000000000000000815260040180806020018281038252602e8152602001806127fb602e913960400191505060405180910390fd5b80600260006101000a8154816cffffffffffffffffffffffffff02191690836cffffffffffffffffffffffffff16021790555050565b600073ffffffffffffffffffffffffffffffffffffffff16600160009054906101000a900473ffffffffffffffffffffffffffffffffffffffff1673ffffffffffffffffffffffffffffffffffffffff161415611d00576040517f08c379a000000000000000000000000000000000000000000000000000000000815260040180806020018281038252600c8152602001807f4e6f20436f6e7461696e6572000000000000000000000000000000000000000081525060200191505060405180910390fd5b600160009054906101000a900473ffffffffffffffffffffffffffffffffffffffff1673ffffffffffffffffffffffffffffffffffffffff163373ffffffffffffffffffffffffffffffffffffffff1614611dc3576040517f08c379a00000000000000000000000000000000000000000000000000000000081526004018080602001828103825260168152602001807f4f6e6c79207468726f75676820436f6e7461696e65720000000000000000000081525060200191505060405180910390fd5b6000611f32600360009054906101000a900473ffffffffffffffffffffffffffffffffffffffff1673ffffffffffffffffffffffffffffffffffffffff1663fafa084d856040518263ffffffff1660e01b81526004018082815260200191505060206040518083038186803b158015611e3b57600080fd5b505afa158015611e4f573d6000803e3d6000fd5b505050506040513d6020811015611e6557600080fd5b8101908080519060200190929190505050600360009054906101000a900473ffffffffffffffffffffffffffffffffffffffff1673ffffffffffffffffffffffffffffffffffffffff1663721d1902866040518263ffffffff1660e01b81526004018082815260200191505060206040518083038186803b158015611ee957600080fd5b505afa158015611efd573d6000803e3d6000fd5b505050506040513d6020811015611f1357600080fd5b81019080805190602001909291905050506126ac90919063ffffffff16565b905080341015611faa576040517f08c379a00000000000000000000000000000000000000000000000000000000081526004018080602001828103825260118152602001807f4e6f7420656e6f75676820616d6f756e7400000000000000000000000000000081525060200191505060405180910390fd5b6000811415612021576040517f08c379a00000000000000000000000000000000000000000000000000000000081526004018080602001828103825260148152602001807f44656274206973206e6f74206578697374696e6700000000000000000000000081525060200191505060405180910390fd5b6001600281111561202e57fe5b600360009054906101000a900473ffffffffffffffffffffffffffffffffffffffff1673ffffffffffffffffffffffffffffffffffffffff16630f2e9ef8856040518263ffffffff1660e01b81526004018082815260200191505060206040518083038186803b1580156120a157600080fd5b505afa1580156120b5573d6000803e3d6000fd5b505050506040513d60208110156120cb57600080fd5b810190808051906020019092919050505060ff1614612152576040517f08c379a00000000000000000000000000000000000000000000000000000000081526004018080602001828103825260138152602001807f4e6f7420696e2066756e6465642073746174650000000000000000000000000081525060200191505060405180910390fd5b6000600360009054906101000a900473ffffffffffffffffffffffffffffffffffffffff1673ffffffffffffffffffffffffffffffffffffffff166314ba0aa8856040518263ffffffff1660e01b81526004018082815260200191505060206040518083038186803b1580156121c757600080fd5b505afa1580156121db573d6000803e3d6000fd5b505050506040513d60208110156121f157600080fd5b81019080805190602001909291905050509050600073ffffffffffffffffffffffffffffffffffffffff168173ffffffffffffffffffffffffffffffffffffffff1614156122a7576040517f08c379a00000000000000000000000000000000000000000000000000000000081526004018080602001828103825260148152602001807f446f6573206e6f742068617665206c656e64657200000000000000000000000081525060200191505060405180910390fd5b600560009054906101000a900473ffffffffffffffffffffffffffffffffffffffff1673ffffffffffffffffffffffffffffffffffffffff1663f340fa0134836040518363ffffffff1660e01b8152600401808273ffffffffffffffffffffffffffffffffffffffff1673ffffffffffffffffffffffffffffffffffffffff1681526020019150506000604051808303818588803b15801561234857600080fd5b505af115801561235c573d6000803e3d6000fd5b5050505050600360009054906101000a900473ffffffffffffffffffffffffffffffffffffffff1673ffffffffffffffffffffffffffffffffffffffff1663f192eaf0856040518263ffffffff1660e01b815260040180828152602001915050600060405180830381600087803b1580156123d657600080fd5b505af11580156123ea573d6000803e3d6000fd5b50505050600460009054906101000a900473ffffffffffffffffffffffffffffffffffffffff1673ffffffffffffffffffffffffffffffffffffffff166343d7cce684600260009054906101000a90046cffffffffffffffffffffffffff166040518363ffffffff1660e01b8152600401808373ffffffffffffffffffffffffffffffffffffffff1673ffffffffffffffffffffffffffffffffffffffff168152602001826cffffffffffffffffffffffffff16815260200192505050600060405180830381600087803b1580156124c157600080fd5b505af11580156124d5573d6000803e3d6000fd5b50505050600360009054906101000a900473ffffffffffffffffffffffffffffffffffffffff1673ffffffffffffffffffffffffffffffffffffffff1663776052e08460006040518363ffffffff1660e01b8152600401808373ffffffffffffffffffffffffffffffffffffffff1673ffffffffffffffffffffffffffffffffffffffff1681526020018215151515815260200192505050600060405180830381600087803b15801561258757600080fd5b505af115801561259b573d6000803e3d6000fd5b505050507f33108f2f43fc19a4394a503be90cb9805fcf7ffbd88f1a21a2f401d371271e52846040518082815260200191505060405180910390a150505050565b6000808314156125ef576000905061265c565b600082840290508284828161260057fe5b0414612657576040517f08c379a000000000000000000000000000000000000000000000000000000000815260040180806020018281038252602181526020018061284a6021913960400191505060405180910390fd5b809150505b92915050565b60006126a483836040518060400160405280601a81526020017f536166654d6174683a206469766973696f6e206279207a65726f000000000000815250612734565b905092915050565b60008082840190508381101561272a576040517f08c379a000000000000000000000000000000000000000000000000000000000815260040180806020018281038252601b8152602001807f536166654d6174683a206164646974696f6e206f766572666c6f77000000000081525060200191505060405180910390fd5b8091505092915050565b600080831182906127e0576040517f08c379a00000000000000000000000000000000000000000000000000000000081526004018080602001828103825283818151815260200191508051906020019080838360005b838110156127a557808201518184015260208101905061278a565b50505050905090810190601f1680156127d25780820380516001836020036101000a031916815260200191505b509250505060405180910390fd5b5060008385816127ec57fe5b04905080915050939250505056fe4f6e6c792074686520636f6e7472616374206f776e65722063616e2063616c6c20746869732066756e6374696f6e54686520616d6f756e7420697320746f6f20736d616c6c20746f20626f72726f77536166654d6174683a206d756c7469706c69636174696f6e206f766572666c6f77a264697066735822122025b903302c16cb19750eda88a4fd7ae2f9f69f5330468c6ecfc386f4f455270f64736f6c63430006000033",
  "source": "// SPDX-License-Identifier: MIT\npragma solidity ^0.6.0;\nimport \"../lib/SafeMath.sol\";\nimport \"../database/LoanDB.sol\";\nimport \"../database/HeartToken.sol\";\nimport \"../container/Contained.sol\";\nimport \"./Wallet.sol\";\n\n\n/**\n    @title LoanManager\n    @dev manages the lending and repayment of loans, and rewards users with HeartToken for participating.\n    @author abhaydeshpande\n */\ncontract LoanManager is Contained {\n    using SafeMath for uint256;\n    enum LoanState {REQUESTED, FUNDED, PAID}\n    event Requested(bytes32 debtNo, address _owner, uint256 _amount);\n    event Funded(bytes32 debtNo, address _lender);\n    event PaidBack(bytes32 debtNo);\n    uint104 rewardToken = 10;\n    LoanDB loandb;\n    HeartToken heartToken;\n    Wallet wallet;\n\n    function init() external onlyOwner {\n        loandb = LoanDB(container.getContract(CONTRACT_LOAN_DB));\n        heartToken = HeartToken(payable(container.getContract(CONTRACT_HEART_TOKEN)));\n        wallet = Wallet(container.getContract(CONTRACT_WALLET));\n    }\n\n    function setRewardToken(uint104 _amount) external onlyOwner {\n        rewardToken = _amount;\n    }\n\n    function requestLoan(bytes32 _debtNo, address _borrower, uint256 _amount)\n        external\n        onlyContained\n    {\n        require(_amount >= 1e16 wei, \"The amount is too small to borrow\");\n        require(loandb.getBorrowerofDebt(_debtNo) == address(0), \"debt exists\");\n        require(loandb.checkHaveDebt(_borrower) == false,\"already have Debt\");\n        uint256 _interest = (_amount.mul(2)).div(100);\n        loandb.addDebt(_debtNo, _borrower, _amount, _interest);\n        emit Requested(_debtNo, _borrower, _amount);\n    }\n\n    function lendLoan(bytes32 _debtNo, address _sender)\n        external\n        payable\n        onlyContained\n    {\n        uint256 _amount = loandb.getAmountofDebt(_debtNo);\n        address _borrower = loandb.getBorrowerofDebt(_debtNo);\n        require(loandb.getStateofDebt(_debtNo) == uint(LoanState.REQUESTED),\"Not in requested state\");\n        require(msg.value >= _amount, \"Not enough amount\");\n        require(_borrower != address(0), \"Debt is not existing\");\n        require(loandb.checkHaveDebt(_borrower) == false,\"already have Debt\");\n        wallet.deposit.value(msg.value)(_borrower);\n        loandb.updateLender(_debtNo, _sender);\n        loandb.setHaveDebt(_borrower,true);\n        heartToken.getToken(_sender, rewardToken);\n        emit Funded(_debtNo, _sender);\n    }\n\n    function payLoan(bytes32 _debtNo, address _sender)\n        external\n        payable\n        onlyContained\n    {\n        uint256 _amount = loandb.getAmountofDebt(_debtNo).add(\n            loandb.getInterestofDebt(_debtNo)\n        );\n        require(msg.value >= _amount, \"Not enough amount\");\n        require(_amount != 0, \"Debt is not existing\");\n        require(loandb.getStateofDebt(_debtNo) == uint(LoanState.FUNDED),\"Not in funded state\");\n        address _lender = loandb.getLenderofDebt(_debtNo);\n        require(_lender != address(0), \"Does not have lender\");\n        wallet.deposit.value(msg.value)(_lender);\n        loandb.completeDebt(_debtNo);\n        heartToken.getToken(_sender, rewardToken);\n        loandb.setHaveDebt(_sender,false);\n        emit PaidBack(_debtNo);\n    }\n}\n",
  "sourcePath": "/Users/abhaydeshpande/Documents/micro_finance_arbitrum/contracts/modules/LoanManager.sol",
  "compiler": {
    "name": "solc",
    "version": "0.6.0+commit.26b70077.Emscripten.clang"
  },
  "schemaVersion": "3.4.13",
  "updatedAt": "2023-04-16T06:45:11.908Z",
  "devdoc": {
    "author": "abhaydeshpande",
    "details": "manages the lending and repayment of loans, and rewards users with HeartToken for participating.",
    "methods": {},
    "title": "LoanManager"
  },
  "userdoc": {
    "methods": {}
  }
}