{
  "contractName": "Wallet",
  "abi": [
    {
      "anonymous": false,
      "inputs": [
        {
          "indexed": true,
          "internalType": "address",
          "name": "payee",
          "type": "address"
        },
        {
          "indexed": false,
          "internalType": "uint256",
          "name": "weiAmount",
          "type": "uint256"
        }
      ],
      "name": "Deposited",
      "type": "event"
    },
    {
      "anonymous": false,
      "inputs": [
        {
          "indexed": true,
          "internalType": "address",
          "name": "payee",
          "type": "address"
        },
        {
          "indexed": false,
          "internalType": "uint256",
          "name": "weiAmount",
          "type": "uint256"
        }
      ],
      "name": "Withdrawn",
      "type": "event"
    },
    {
      "inputs": [],
      "name": "container",
      "outputs": [
        {
          "internalType": "contract BaseContainer",
          "name": "",
          "type": "address"
        }
      ],
      "stateMutability": "view",
      "type": "function"
    },
    {
      "inputs": [],
      "name": "owner",
      "outputs": [
        {
          "internalType": "address payable",
          "name": "",
          "type": "address"
        }
      ],
      "stateMutability": "view",
      "type": "function"
    },
    {
      "inputs": [
        {
          "internalType": "contract BaseContainer",
          "name": "_container",
          "type": "address"
        }
      ],
      "name": "setContainerEntry",
      "outputs": [],
      "stateMutability": "nonpayable",
      "type": "function"
    },
    {
      "inputs": [
        {
          "internalType": "address payable",
          "name": "newOwner",
          "type": "address"
        }
      ],
      "name": "transferOwnership",
      "outputs": [],
      "stateMutability": "nonpayable",
      "type": "function"
    },
    {
      "inputs": [
        {
          "internalType": "address",
          "name": "payee",
          "type": "address"
        }
      ],
      "name": "depositsOf",
      "outputs": [
        {
          "internalType": "uint256",
          "name": "",
          "type": "uint256"
        }
      ],
      "stateMutability": "view",
      "type": "function"
    },
    {
      "inputs": [
        {
          "internalType": "address",
          "name": "payee",
          "type": "address"
        }
      ],
      "name": "deposit",
      "outputs": [],
      "stateMutability": "payable",
      "type": "function"
    },
    {
      "inputs": [
        {
          "internalType": "address payable",
          "name": "payee",
          "type": "address"
        },
        {
          "internalType": "uint256",
          "name": "payment",
          "type": "uint256"
        }
      ],
      "name": "withdraw",
      "outputs": [],
      "stateMutability": "nonpayable",
      "type": "function"
    }
  ],
  "bytecode": "0x6080604052336000806101000a81548173ffffffffffffffffffffffffffffffffffffffff021916908373ffffffffffffffffffffffffffffffffffffffff160217905550610ec5806100536000396000f3fe6080604052600436106100705760003560e01c8063e3a9db1a1161004e578063e3a9db1a14610174578063f2fde38b146101d9578063f340fa011461022a578063f3fef3a31461026e57610070565b80630ab01647146100755780638da5cb5b146100c657806390e534a71461011d575b600080fd5b34801561008157600080fd5b506100c46004803603602081101561009857600080fd5b81019080803573ffffffffffffffffffffffffffffffffffffffff1690602001909291905050506102c9565b005b3480156100d257600080fd5b506100db6103b2565b604051808273ffffffffffffffffffffffffffffffffffffffff1673ffffffffffffffffffffffffffffffffffffffff16815260200191505060405180910390f35b34801561012957600080fd5b506101326103d7565b604051808273ffffffffffffffffffffffffffffffffffffffff1673ffffffffffffffffffffffffffffffffffffffff16815260200191505060405180910390f35b34801561018057600080fd5b506101c36004803603602081101561019757600080fd5b81019080803573ffffffffffffffffffffffffffffffffffffffff1690602001909291905050506103fd565b6040518082815260200191505060405180910390f35b3480156101e557600080fd5b50610228600480360360208110156101fc57600080fd5b81019080803573ffffffffffffffffffffffffffffffffffffffff169060200190929190505050610446565b005b61026c6004803603602081101561024057600080fd5b81019080803573ffffffffffffffffffffffffffffffffffffffff1690602001909291905050506105d1565b005b34801561027a57600080fd5b506102c76004803603604081101561029157600080fd5b81019080803573ffffffffffffffffffffffffffffffffffffffff169060200190929190803590602001909291905050506109f8565b005b6000809054906101000a900473ffffffffffffffffffffffffffffffffffffffff1673ffffffffffffffffffffffffffffffffffffffff163373ffffffffffffffffffffffffffffffffffffffff161461036e576040517f08c379a000000000000000000000000000000000000000000000000000000000815260040180806020018281038252602e815260200180610e62602e913960400191505060405180910390fd5b80600160006101000a81548173ffffffffffffffffffffffffffffffffffffffff021916908373ffffffffffffffffffffffffffffffffffffffff16021790555050565b6000809054906101000a900473ffffffffffffffffffffffffffffffffffffffff1681565b600160009054906101000a900473ffffffffffffffffffffffffffffffffffffffff1681565b6000600260008373ffffffffffffffffffffffffffffffffffffffff1673ffffffffffffffffffffffffffffffffffffffff168152602001908152602001600020549050919050565b6000809054906101000a900473ffffffffffffffffffffffffffffffffffffffff1673ffffffffffffffffffffffffffffffffffffffff163373ffffffffffffffffffffffffffffffffffffffff16146104eb576040517f08c379a000000000000000000000000000000000000000000000000000000000815260040180806020018281038252602e815260200180610e62602e913960400191505060405180910390fd5b600073ffffffffffffffffffffffffffffffffffffffff168173ffffffffffffffffffffffffffffffffffffffff16141561058e576040517f08c379a00000000000000000000000000000000000000000000000000000000081526004018080602001828103825260208152602001807f4e6577206f776e657220616464726573732063616e6e6f74206265207a65726f81525060200191505060405180910390fd5b806000806101000a81548173ffffffffffffffffffffffffffffffffffffffff021916908373ffffffffffffffffffffffffffffffffffffffff16021790555050565b6040518060400160405280600b81526020017f4c6f616e4d616e61676572000000000000000000000000000000000000000000815250600073ffffffffffffffffffffffffffffffffffffffff16600160009054906101000a900473ffffffffffffffffffffffffffffffffffffffff1673ffffffffffffffffffffffffffffffffffffffff1614156106cc576040517f08c379a000000000000000000000000000000000000000000000000000000000815260040180806020018281038252600c8152602001807f4e6f20436f6e7461696e6572000000000000000000000000000000000000000081525060200191505060405180910390fd5b6000600160009054906101000a900473ffffffffffffffffffffffffffffffffffffffff1673ffffffffffffffffffffffffffffffffffffffff166335817773836040518263ffffffff1660e01b81526004018080602001828103825283818151815260200191508051906020019080838360005b8381101561075c578082015181840152602081019050610741565b50505050905090810190601f1680156107895780820380516001836020036101000a031916815260200191505b509250505060206040518083038186803b1580156107a657600080fd5b505afa1580156107ba573d6000803e3d6000fd5b505050506040513d60208110156107d057600080fd5b81019080805190602001909291905050509050600073ffffffffffffffffffffffffffffffffffffffff168173ffffffffffffffffffffffffffffffffffffffff161415610886576040517f08c379a00000000000000000000000000000000000000000000000000000000081526004018080602001828103825260158152602001807f496e76616c696420636f6e7472616374206e616d65000000000000000000000081525060200191505060405180910390fd5b8073ffffffffffffffffffffffffffffffffffffffff163373ffffffffffffffffffffffffffffffffffffffff161461090a576040517f08c379a0000000000000000000000000000000000000000000000000000000008152600401808060200182810382526021815260200180610e416021913960400191505060405180910390fd5b600034905061096181600260008773ffffffffffffffffffffffffffffffffffffffff1673ffffffffffffffffffffffffffffffffffffffff16815260200190815260200160002054610cae90919063ffffffff16565b600260008673ffffffffffffffffffffffffffffffffffffffff1673ffffffffffffffffffffffffffffffffffffffff168152602001908152602001600020819055508373ffffffffffffffffffffffffffffffffffffffff167f2da466a7b24304f47e87fa2e1e5a81b9831ce54fec19055ce277ca2f39ba42c4826040518082815260200191505060405180910390a250505050565b600073ffffffffffffffffffffffffffffffffffffffff16600160009054906101000a900473ffffffffffffffffffffffffffffffffffffffff1673ffffffffffffffffffffffffffffffffffffffff161415610abd576040517f08c379a000000000000000000000000000000000000000000000000000000000815260040180806020018281038252600c8152602001807f4e6f20436f6e7461696e6572000000000000000000000000000000000000000081525060200191505060405180910390fd5b600160009054906101000a900473ffffffffffffffffffffffffffffffffffffffff1673ffffffffffffffffffffffffffffffffffffffff163373ffffffffffffffffffffffffffffffffffffffff1614610b80576040517f08c379a00000000000000000000000000000000000000000000000000000000081526004018080602001828103825260168152602001807f4f6e6c79207468726f75676820436f6e7461696e65720000000000000000000081525060200191505060405180910390fd5b610bd281600260008573ffffffffffffffffffffffffffffffffffffffff1673ffffffffffffffffffffffffffffffffffffffff16815260200190815260200160002054610d3690919063ffffffff16565b600260008473ffffffffffffffffffffffffffffffffffffffff1673ffffffffffffffffffffffffffffffffffffffff168152602001908152602001600020819055508173ffffffffffffffffffffffffffffffffffffffff166108fc829081150290604051600060405180830381858888f19350505050158015610c5b573d6000803e3d6000fd5b508173ffffffffffffffffffffffffffffffffffffffff167f7084f5476618d8e60b11ef0d7d3f06914655adb8793e28ff7f018d4c76d505d5826040518082815260200191505060405180910390a25050565b600080828401905083811015610d2c576040517f08c379a000000000000000000000000000000000000000000000000000000000815260040180806020018281038252601b8152602001807f536166654d6174683a206164646974696f6e206f766572666c6f77000000000081525060200191505060405180910390fd5b8091505092915050565b6000610d7883836040518060400160405280601e81526020017f536166654d6174683a207375627472616374696f6e206f766572666c6f770000815250610d80565b905092915050565b6000838311158290610e2d576040517f08c379a00000000000000000000000000000000000000000000000000000000081526004018080602001828103825283818151815260200191508051906020019080838360005b83811015610df2578082015181840152602081019050610dd7565b50505050905090810190601f168015610e1f5780820380516001836020036101000a031916815260200191505b509250505060405180910390fd5b506000838503905080915050939250505056fe4f6e6c7920737065636966696320636f6e74726163742063616e206163636573734f6e6c792074686520636f6e7472616374206f776e65722063616e2063616c6c20746869732066756e6374696f6ea26469706673582212206401db081f29e0e04bad6ce54c175bf16ac9ec7654ea13b7703385a319bede9864736f6c63430006000033",
  "source": "// SPDX-License-Identifier: MIT\npragma solidity ^0.6.0;\nimport \"../lib/SafeMath.sol\";\nimport \"../container/Contained.sol\";\n\n\n/**\n    @title Wallet\n    @dev All of amount of money for funds and pay back is stored here.\n    @author abhaydeshpande\n */\n\ncontract Wallet is Contained {\n    using SafeMath for uint256;\n    event Deposited(address indexed payee, uint256 weiAmount);\n    event Withdrawn(address indexed payee, uint256 weiAmount);\n    mapping(address => uint256) private _deposits;\n\n    function depositsOf(address payee) public view returns (uint256) {\n        return _deposits[payee];\n    }\n\n    /**\n     * @dev Stores the sent amount as credit to be withdrawn.\n     * @param payee The destination address of the funds.\n     */\n    function deposit(address payee)\n        public\n        payable\n        onlyContract(CONTRACT_LOAN_MANAGER)\n    {\n        uint256 amount = msg.value;\n        _deposits[payee] = _deposits[payee].add(amount);\n\n        emit Deposited(payee, amount);\n    }\n\n    /**\n     * @dev Withdraw accumulated balance for a payee.\n     * @param payee The address whose funds will be withdrawn and transferred to.\n     */\n    function withdraw(address payable payee, uint256 payment)\n        public\n        onlyContained\n    {\n        _deposits[payee] = _deposits[payee].sub(payment);\n\n        payee.transfer(payment);\n\n        emit Withdrawn(payee, payment);\n    }\n}\n",
  "sourcePath": "/Users/abhaydeshpande/Documents/micro_finance_arbitrum/contracts/modules/Wallet.sol",
  "compiler": {
    "name": "solc",
    "version": "0.6.0+commit.26b70077.Emscripten.clang"
  },
  "schemaVersion": "3.4.13",
  "updatedAt": "2023-04-16T06:45:11.912Z",
  "devdoc": {
    "author": "abhaydeshpande",
    "details": "All of amount of money for funds and pay back is stored here.",
    "methods": {
      "deposit(address)": {
        "details": "Stores the sent amount as credit to be withdrawn.",
        "params": {
          "payee": "The destination address of the funds."
        }
      },
      "withdraw(address,uint256)": {
        "details": "Withdraw accumulated balance for a payee.",
        "params": {
          "payee": "The address whose funds will be withdrawn and transferred to."
        }
      }
    },
    "title": "Wallet"
  },
  "userdoc": {
    "methods": {}
  }
}